:020000040800F2
:100000009004002001010008FF130008BD12000841
:10001000FD130008E5010008F717000800000000C4
:10002000000000000000000000000000591400085B
:10003000E701000800000000211400085B1400081C
:100040001B0100081B0100081B0100081B01000820
:100050001B0100081B0100081B0100081B01000810
:100060001B0100081B010008E90100081B01000832
:100070001B0100081B0100081B0100081B010008F0
:100080001B0100081B0100081B0100081B010008E0
:100090001B0100081B0100081B0100081B010008D0
:1000A0001B0100081B0100081B0100081B010008C0
:1000B0001B010008191500081B0100081B0100089E
:1000C0001B0100081B0100081B0100081B010008A0
:1000D0001B0100081B0100081B0100081B01000890
:1000E0001B0100081B0100081B010008DFF80CD0F1
:1000F00000F02EF800480047A919000890040020DD
:100100000648804706480047FEE7FEE7FEE7FEE7B1
:10011000FEE7FEE7FEE7FEE7FEE7FEE7D114000894
:10012000ED00000830B50B460146002020220124D6
:1001300009E021FA02F59D4205D303FA02F5491BB5
:1001400004FA02F52844151EA2F10102F1DC30BDCB
:10015000064C074D06E0E06840F0010394E8070014
:1001600098471034AC42F6D3FFF7C4FFE0190008FB
:10017000001A00080AA001F03FFB10A001F03CFBB0
:1001800012A001F039FB164D4FF400544FF47A766B
:100190002146284600F026F9304600F029F8F7E716
:1001A00053544D333246313033433854362048416E
:1001B0004C5F50726F6A6563740D0A004279A3BA8E
:1001C00053696D706C650D0A000000004461746530
:1001D000A3BA382F33302F323031370D0A000000E8
:1001E00000100140FEE77047102000F011B8FEE754
:1001F00031B500F001F9044600F0FEF80099001B4B
:100200008842F9D338BD102801D101F00BB97047ED
:10021000044910B50A68024202D00860FFF7F3FFF4
:1002200010BD0000140401402DE9F84FDFF890A143
:1002300000220AF1040B144601274FF00F090BF1BD
:10024000040E00BF0B6807FA04F52B40AB4274D1D3
:10025000DFF870C14E68A6EB0C0866452BD00DDCAC
:10026000032E34D005DC36B3012E19D0022E2FD147
:100270001BE0112E16D0122E2AD119E0B8F5881FD6
:1002800019D006DCB8F5803F15D0B8F5801F1FD116
:1002900011E0B8F5001F0ED0B8F5041F18D10AE020
:1002A000CA6815E0CA68121D12E0CA6808320FE079
:1002B000CA680C320CE08A682AB1012A4FF00802A1
:1002C00003D0456104E0042202E0056100E0002261
:1002D000FF2B01D8064601E000F104064FEA840531
:1002E00001D9A5F12005D6F800C009FA05F82CEAD5
:1002F000080C02FA05F54CEA050CC6F800C04D687A
:10030000ED0057D5304DAE6946F00106AE61AD69DE
:1003100024F0030605F0010500952C4D06EB050CB5
:10032000DCF80850A6074FEA167809FA08F6B54334
:10033000274EB04202D1002610E03BE0254EB042ED
:1003400001D101260AE0244EB04201D1022605E087
:10035000224EB04201D1032600E0042606FA08F638
:100360002E43CCF808604D68DAF80060ED0355467E
:1003700001D51E4300E09E432E604D68DBF800600F
:10038000AD035D4601D51E4300E09E432E604D68DF
:10039000DEF80060ED02754601D51E4300E09E4385
:1003A0002E604D68AD020E4D2E6801D51E4300E053
:1003B0009E432E60641C102CFFF444AFBDE8F88F00
:1003C0000004014000001110001002400000014034
:1003D00000080140000C01400010014000140140E1
:1003E0000C040140C2684A40C26070470AB1016112
:1003F00070470904FBE700000148006870470000EF
:100400000400002002480168491C01607047000098
:1004100004000020074810B5016841F01001016098
:10042000032000F087F8002000F006F800F016F82E
:10043000002010BD0020024010B5044600F050F925
:100440004FF47A71B0FBF1F000F090FC00222146ED
:10045000501E00F04FF8002010BD00001D4808B5E8
:10046000816941F001018161806900F00100009023
:10047000052000F05FF8002211466FF00B0000F03D
:1004800039F8002211466FF00A0000F033F800221C
:1004900011466FF0090000F02DF800221146501FA0
:1004A00000F028F800221146101F00F023F8002267
:1004B0001146901E00F01EF800221146501E00F05A
:1004C00019F80548416821F0E06141F00071416090
:1004D00008BD0000001002400000014000F01F02B3
:1004E000012191404009800000F1E020C0F8001196
:1004F00070470000F0B40E4B1B680C46C3F3022398
:10050000C3F10705042D00D90425191D072901D2BF
:10051000002300E0DB1E012606FA05F1491E2140FA
:1005200099409E40761E16403143F0BC00F068BFF3
:100530000CED00E0064900F0070208684FF6FF03E3
:10054000184040EA0220034A104308607047000048
:100550000CED00E00000FA052DE9F047DFF87081AE
:1005600005460E46D8F8000000F00700B0420CD255
:10057000D8F8001021F007013143C8F80010D8F86E
:10058000000000F00700B04277D12878514C800776
:1005900005D56068A96820F0F000084360602878FD
:1005A000C00759D06968012001290DD0022929D03E
:1005B0005FF0020393FAA3F2B2FA82F242F0200251
:1005C000520904D0226803E04FF40033F2E7626A74
:1005D00093FAA3F3B3FA83F303F01F0398400242A4
:1005E0004BD0606820F0030008436060FFF704FF11
:1005F0006968074641F2883001290DD002298146F9
:1006000017D025E04FF00073D4E700BFFFF7F4FEEA
:10061000C11B494501D918E081466068C0F38100DB
:100620000128F3D118E000BFFFF7E6FEC11B4945E2
:100630000BD86068C0F381000228F5D10CE000BF40
:10064000FFF7DAFEC11B494502D90320BDE8F08758
:10065000606810F00C0FF3D1D8F80010404601F09C
:100660000701B1420BD9016821F007013143016054
:10067000006800F00700B04201D00120E6E72878CA
:10068000400705D56068E96820F4E06008436060D1
:100690002878000706D56068296920F4605040EA90
:1006A000C100606000F052F86168F02292FAA2F294
:1006B00001F0F001B2FA82F2D140074A515CC84021
:1006C000064908600020FFF7B7FE0020BEE70000E3
:1006D0000020024000100240C6190008000000205F
:1006E00001480068704700000000002008480949E0
:1006F000006849684FF4E06292FAA2F201F4E06106
:10070000B2FA82F2D140044A515CC84070470000FE
:100710000000002000100240D619000808480949CE
:10072000006849684FF4605292FAA2F201F46051F5
:10073000B2FA82F2D140044A515CC84070470000CE
:100740000000002000100240D619000810B519A3BF
:1007500085B00FCB8DE80F001AA01B4B00680490EA
:100760005A681A4802F00C0104291DD008291BD12F
:100770004FF4701494FAA4F402F47011B4FA84F4EF
:10078000E140D2031DF8011010D55A684FF4003330
:1007900093FAA3F302F40032B3FA83F3DA4004AB22
:1007A0009A5CB0FBF2F0484305B010BD08484843DE
:1007B000FAE7000002030405060708090A0B0C0DFE
:1007C0000E0F1010010200000010024000127A000B
:1007D00000093D002DE9F84F04460078F74DC007A9
:1007E0004FF0010625D068687704C0F38100012826
:1007F00007D06868C0F3810002281BD16868C00375
:1008000018D597FAA7F0B0FA80F040F02000400920
:1008100001D0286800E0686A97FAA7F1B1FA81F17F
:1008200001F01F0106FA01F108425ED0606800285D
:100830007CD05AE06068B0F5803F0BD010B1B0F5C5
:10084000A02F11D0286820F480302860286820F478
:10085000802002E0286840F480302860606828B377
:10086000FFF7CAFD80460BE0286840F4802028602E
:10087000F0E700BFFFF7C0FDA0EB0800642871D8C7
:1008800097FAA7F0B0FA80F040F02000400901D0BC
:10089000286800E0686A97FAA7F1B1FA81F101F0DF
:1008A0001F0106FA01F10842E4D01EE0FFF7A4FDA3
:1008B000804605E0FFF7A0FDA0EB08006428DED825
:1008C00097FAA7F0B0FA80F040F02000400901D07C
:1008D000286800E0686A97FAA7F1B1FA81F101F09F
:1008E0001F0106FA01F10842E4D12078DFF8D08236
:1008F00080074FF000094FF002075BD568684FF0A2
:10090000F80B10F00C0F07D06868C0F381000228C4
:100910001CD16868C00319D497FAA7F0B0FA80F028
:1009200040F02000400902D0286801E08BE0686AAE
:1009300097FAA7F1B1FA81F101F01F0106FA01F16E
:1009400008422CD0206901287DD128E0206990B38D
:1009500096FAA6F0B0FA80F048F82060FFF74CFD58
:10096000824607E011E100BFFFF746FDA0EB0A0059
:10097000022884D897FAA7F0B0FA80F040F020005F
:10098000400901D0286800E0686A97FAA7F1B1FA37
:1009900081F101F01F0106FA01F10842E4D0286854
:1009A0009BFAABF26169B2FA82F220F0F800914052
:1009B0000843286025E0FFE796FAA6F1B1FA81F135
:1009C00048F82190FFF718FD824605E0FFF714FD77
:1009D000A0EB0A000228CCD897FAA7F0B0FA80F072
:1009E00040F02000400901D0286800E0686A97FACA
:1009F000A7F1B1FA81F101F01F0106FA01F10842F5
:100A0000E4D1207800076ED5A069B8B396FAA6F0B5
:100A1000B0FA80F008EB8000C0F88064FFF7ECFCCF
:100A2000824605E0FFF7E8FCA0EB0A000228A0D808
:100A300097FAA7F0B0FA80F040F06000B6EB501FD4
:100A400002D128680CE062E197FAA7F0B0FA80F0D2
:100A500040F06000B7EB501F01D1286A00E0686ADF
:100A600097FAA7F1B1FA81F101F01F0106FA01F23C
:100A70001042D7D00120FFF7BBFB34E0FFE796FA26
:100A8000A6F1B1FA81F108EB8101C1F88094FFF77A
:100A9000B3FC824606E000BFFFF7AEFCA0EB0A0005
:100AA000022872D897FAA7F0B0FA80F040F0600000
:100AB000B6EB501F01D128680BE097FAA7F0B0FA07
:100AC00080F040F06000B7EB501F01D1286A00E0D1
:100AD000686A97FAA7F1B1FA81F101F01F0106FAED
:100AE00001F21042D8D12078400765D5E86940F07E
:100AF0008050E861E869DFF8CCB000F080500090E9
:100B0000DBF8001041F48071CBF80010FFF774FCA3
:100B1000824605E0FFF770FCA0EB0A00642834D899
:100B2000DBF80000C005F5D5E06801280AD008B15F
:100B3000052813D0286A20F001002862286A20F0D6
:100B4000040002E0286A40F001002862E06841F2F7
:100B5000883B90B3FFF750FC82460BE0286A40F0D8
:100B600004002862EEE700BFFFF746FCA0EB0A0195
:100B700059450AD897FAA7F0B0FA80F040F0400043
:100B8000B6EB501F02D128680CE0A3E097FAA7F05B
:100B9000B0FA80F040F04000B7EB501F01D1286A56
:100BA00000E0686A97FAA7F1B1FA81F101F01F023B
:100BB00006FA02F10842D7D031E005E00010024009
:100BC0000000424200700040FFF716FC824605E03C
:100BD000FFF712FCA0EB0A0159457BD897FAA7F062
:100BE000B0FA80F040F04000B6EB501F01D1286809
:100BF0000BE097FAA7F0B0FA80F040F04000B7EBB6
:100C0000501F01D1286A00E0686A97FAA7F1B1FA8B
:100C100081F101F01F0206FA02F10842D8D1E06921
:100C200080B36968C1F38101022970D04FF08071EF
:100C30004F000228484609D091FAA1F1B1FA81F19A
:100C400048F82100FFF7D8FB044669E08A4691FA8C
:100C5000A1F1B1FA81F1C14648F82100FFF7CCFBC0
:100C6000804605E0FFF7C8FBA0EB0800022854D837
:100C700097FAA7F0B0FA80F040F02000400902D0C7
:100C8000286801E061E0686A97FAA7F1B1FA81F19A
:100C900001F01F0106FA01F10842E3D1206AB0F524
:100CA000803F05D16868A16820F40030084368607F
:100CB000D4E908010843696821F4741108436860A5
:100CC0009AFAAAF0B0FA80F049F82060FFF794FB96
:100CD000044606E021E000BFFFF78EFB001B022860
:100CE0001BD897FAA7F0B0FA80F040F02000400936
:100CF00001D0286800E0686A97FAA7F1B1FA81F19B
:100D000001F01F0106FA01F10842E5D01DE01EE0E6
:100D1000FFF772FB001B022802D90320BDE8F88F01
:100D200097FAA7F0B0FA80F040F02000400901D017
:100D3000286800E0686A97FAA7F1B1FA81F101F03A
:100D40001F0106FA01F10842E2D10020E6E7012086
:100D5000E4E74FF0E0210428086903D020F0040004
:100D60000861704740F00400FAE7704710B5401E74
:100D7000B0F1807F01D3012010BD4FF0E02460610D
:100D80000F21601700F03CFB0020A06107202061CC
:100D9000002010BD10B5FFF7E8FF10BD7047704789
:100DA00030B590F83820012A20D0012280F8382070
:100DB000022380F8393003685C6824F070045C60BA
:100DC00003685C680D682C435C6003689C6824F0D1
:100DD00080049C6003689C6849680C439C6080F8B0
:100DE0003920002180F83810084630BD022030BD7F
:100DF00010B5040003D094F8390010B107E00120C9
:100E000010BD002084F83800204600F00DF80220C4
:100E100084F83900211D206800F084FB012084F84B
:100E20003900002010BD000008B500680B49884259
:100E300012D10B48C16941F00201C161C0690222AF
:100E400000F00200009011461D20FFF753FBBDE8A3
:100E500008401D20FFF742BB08BD00000004004011
:100E6000001002400168CA6822F00102CA600068EE
:100E7000016A41F21112114207D1016A9210114226
:100E800003D1016821F0010101600020704770B5B5
:100E9000044690F83800012817D0012584F838500E
:100EA000022084F839002068826822F0770222F458
:100EB0007F4282600868502837D00DDC202859D046
:100EC00005DC88B3102841D151E0022070BD3028E4
:100ED00053D040283AD13FE060282ED070280BD064
:100EE000B0F5805F03D0B0F5005F2FD110E020682F
:100EF000816821F0070115E0CB68D1E90121206864
:100F000000F042FB2168886840F0770088601DE0AF
:100F1000CB68D1E90121206800F036FB20688168A8
:100F200041F48041816011E01EE0CA684968206890
:100F300000F03CFB5021206806E0CA684968206840
:100F400000F045FB6021206800F028FB84F8395050
:100F5000002084F8380070BDCA684968206800F035
:100F600025FB40212068EFE700212068ECE71021F5
:100F70002068E9E720212068E6E730212068E3E7E0
:100F8000704770B50446006801694FF00005C94319
:100F9000890715D4C168C943890711D4E91E0161C5
:100FA00001202076206880698007204602D0FFF764
:100FB000E7FF04E000F098F8204600F096F8257668
:100FC00020680169C943490717D4C168C943490763
:100FD00013D46FF00401016102202076206880693B
:100FE00010F4407F204602D0FFF7CAFF04E000F073
:100FF0007BF8204600F079F8257620680169C9431E
:10100000090716D4C168C943090712D46FF0080153
:101010000161042020762068C0698007204602D044
:10102000FFF7AEFF04E000F05FF8204600F05DF847
:10103000257620680169C943C90617D4C168C94328
:10104000C90613D46FF010010161082020762068D2
:10105000C06910F4407F204602D0FFF791FF04E002
:1010600000F042F8204600F040F82576206801693B
:10107000C943C90708D1C168C943C90704D1891E3A
:101080000161204600F032F820680169C943090671
:1010900009D4C168C943090605D46FF08001016114
:1010A0002046FFF77BFE20680169C943490609D441
:1010B000C168C943490605D46FF04001016120466B
:1010C00000F03AF820680169C94389060BD4C16869
:1010D000C943890607D46FF0200101612046BDE8AD
:1010E0007040FFF75CBE70BD704770470A4810B58E
:1010F00001884A1C028002290CD3084A0121117080
:10110000002101800648FFF7ADFEBDE8104005A0B4
:1011100000F072BB10BD0000080000200A00002093
:1011200050000020C3BBD3D0BCECB2E2B5BDBBD8ED
:10113000B2A60D0A00000000704770B5040004D08C
:1011400094F83900002510B106E0012070BD84F844
:101150003850204600F020F8022084F8390020683A
:10116000C16821F40051C160204600F043FA2068B4
:10117000016921F4904101612068416921F02A014F
:1011800041612068C16841F40051C160E5630120FC
:1011900084F83900002070BD10B50068114986B090
:1011A00088421DD11048816941F480418161806984
:1011B0000E4C00F4804004904FF400700090022028
:1011C00001900320039069462046FFF72DF8002187
:1011D0002015CDE90001029169462046FFF724F869
:1011E00006B010BD00380140001002400008014068
:1011F0002DE9F047044690F8390099460D4601283C
:1012000001D0222858D12DB322B394F838000128F8
:1012100052D0012684F838600027E76394F839003B
:1012200022281AD05FF0120084F83900A284E284E8
:101230004FF48058E08C4B46401EE084A0684FF08D
:10124000000240454FF08001204613D100F08AFA99
:1012500008BB04E00120BDE8F0873220E4E72888DD
:101260002168C0F308004860206908B16D1C08E0DF
:10127000AD1C06E000F076FA68B9216815F8010B9C
:101280004860E08C0028D5D14B4600224021204602
:1012900000F068FA08B10320DDE794F8390032283D
:1012A00006D084F8396000BF84F838700020D2E797
:1012B000222084F83900F7E70220CCE7FEE700009F
:1012C000F0B5264885B0816941F0200181618169CE
:1012D00001F020010491816941F00401816181697B
:1012E00001F004010491816941F008018161806984
:1012F0001B4E00F008004FF40054049000222146D9
:101300003046FFF773F8174F002220213846FFF7C9
:101310006DF8009401240225694630460395019436
:10132000FEF782FF102000900F48019000200290ED
:1013300069463846FEF778FF2020CDE9000469466B
:1013400003953846FEF770FF012202210A20FFF7BD
:10135000D1F80A20FFF7C2F805B0F0BD0010024036
:1013600000100140000C01400000211010B514488D
:1013700086B01249016047210024C0E901144EF6ED
:101380005F21C0E90314FFF733FD08B1FEF72FFF1B
:101390004FF48050009069460948FFF778FD08B186
:1013A000FEF725FF049404A905480594FFF7F8FC0F
:1013B000002801D0FEF71BFF06B010BD000400405E
:1013C000500000200C4810B50A4901604FF4E1318B
:1013D0004160002181600C22C160C0E9041281617A
:1013E000C161FFF7AAFE002803D0BDE81040FEF758
:1013F000FEBE10BD0038014010000020FEE770471F
:101400000907090E002806DA00F00F0000F1E020BD
:1014100080F8141D704700F1E02080F80014704738
:101420007047000010B50748FFF71CFD054800682D
:10143000416A002289B24262BDE8104002A000F079
:10144000DBB90000500000200920434E54203D200D
:1014500025640D0A00000000704710B5FEF7D2FFAA
:10146000BDE81040FFF796BC30B58FB001210804ED
:10147000CDE900100024029402250491CDE9075023
:101480004FF4E01009906846FFF7A4F900B1FEE7B9
:101490000F20CDE90A054FF48060CDE90C40022110
:1014A0000AA80E94FFF758F800B1FEE7FFF718F905
:1014B0004FF47A71B0FBF1F0FFF758FC0420FFF70E
:1014C00048FC00221146501EFFF714F80FB030BD43
:1014D0000D48016841F00101016041680B4A11406B
:1014E000416001680A4A11400160016821F48021CD
:1014F0000160416821F4FE0141604FF41F018160E9
:101500000449C00308607047001002400000FFF863
:10151000FFFFF6FE08ED00E00148FFF732BD0000D6
:1015200050000020F0B50268144B154C154D4FF0DB
:101530008047984205D0B84203D0A04201D0A842CB
:1015400003D122F070064A683243984205D0B8426F
:1015500003D0A04201D0A84203D122F44074CA684B
:10156000224302608A68C2620A688262984201D19C
:101570000969016301214161F0BD0000002C0140B7
:10158000000400400008004010B5846842EA0322CD
:1015900024F47F440A432243826010BD826822F013
:1015A00070020A4342F007018160704710B5036A78
:1015B000046A24F001040462846924F0F00444EA1B
:1015C000021423F00A020A438461026210BD10B5BE
:1015D000036A23F0100303628369046A23F47043EF
:1015E00043EA023224F0A00343EA0111826101625E
:1015F00010BD00002DE9F041044600680169E26871
:1016000021F44051114301612169A06808436169D7
:1016100008432168CA6841F20C639A430243CA60D6
:1016200020684169A26921F44071114341614C492C
:1016300020686425322688423CD1FFF76FF800EB22
:10164000C00101EB001061688900B0FBF1F7FFF702
:1016500065F800EBC00101EB00106168B04689003D
:10166000B0FBF1F0B0FBF5F06FF01801484307EB69
:10167000800106EB0110B0FBF5F000F0F006FFF77B
:101680004DF800EBC00101EB001061688900B0FB70
:10169000F1F0B0FBF5F006EB0016FFF73FF800EBBA
:1016A000C00101EB001061688900B0FBF1F7FFF7A2
:1016B00035F83BE0FFF71AF800EBC00101EB001032
:1016C00061688900B0FBF1F7FFF710F800EBC0018B
:1016D00001EB00106168B0468900B0FBF1F0B0FB8F
:1016E000F5F06FF01801484307EB800106EB01109D
:1016F000B0FBF5F000F0F006FEF7F8FF00EBC001DC
:1017000001EB001061688900B0FBF1F0B0FBF5F06F
:1017100006EB0016FEF7EAFF00EBC00101EB00103C
:1017200061688900B0FBF1F7FEF7E0FF00EBC00154
:1017300001EB001061688900B0FBF1F0B0FBF5F03F
:101740006FF01801484307EB800108EB0110B0FB74
:10175000F5F0216800F00F0030448860BDE8F081AA
:10176000003801402DE9F0471D4690460E460446DC
:10177000FEF742FE07465FEA08004FF000094FF00F
:10178000010808D030E0681C05D095B1FEF734FEA2
:10179000C01BA8420DD82068006836EA0000F2D1CC
:1017A00027E0681C20D025B1FEF726FEC01BA8420A
:1017B0001AD92068C16821F08001C1602068C16821
:1017C00021F02001C1602068C16821F48071C160EE
:1017D0002068416921F00101416184F8398084F871
:1017E00038900320BDE8F0872068006836EA0000E2
:1017F000D7D00020F6E7FEE70FB4054B10B503A9DC
:10180000044A029800F018F810BC5DF814FB0000C0
:101810008D1900080C00002002E008C8121F08C142
:10182000002AFAD170477047002001E001C1121F61
:10183000002AFBD1704700002DE9FF4F89B09B467D
:101840000446002506E025280BD05A460B99904700
:10185000641C6D1C20780028F5D10DB02846BDE829
:10186000F08F0027B8460122474900E0074314F8EB
:10187000013F203B02FA03F00842F7D120782E28DE
:1018800019D114F8010F47F004072A280ED06FF081
:101890002F022078A0F1300109290CD808EB88012B
:1018A00002EB410100EB0108641CF2E70A98641C9A
:1018B00050F8048B0A9020780028CED0642808D0F5
:1018C000692806D075281ED05A460B9990476D1C82
:1018D00058E00A994FF00A0901C90A91002802DA72
:1018E00040422D2102E0390504D52B218DF820102E
:1018F000012103E0F90704D02021F7E78A4608AE6A
:101900000DE00021FAE70A994FF00A0901C90A918E
:10191000F7E74946FEF706FC303106F8011D0028BE
:10192000F7D1ADEB060000F12009780701D44FF0A4
:101930000108C84502DDA8EB090000E00020804650
:10194000002706E008A85A46C05D0B9990476D1C19
:101950007F1C5745F6DB04E030205A460B99904730
:101960006D1CB8F10001A8F10108F5DC05E016F8DE
:10197000010B5A460B9990476D1CB9F10001A9F172
:101980000109F4DC641C65E70928010038B5044648
:101990008DF800000223012269460248FFF728FC67
:1019A000204638BD1000002010B5FEF733FDFFF7CC
:1019B0005BFDFFF785FCFFF705FDFFF7D7FCFEF7A2
:1019C000D9FB002010BD0000000000000000010253
:1019D00003040607080900000000010203040000D8
:1019E000001A00080000002010000000181800086D
:1019F000101A0008100000208004000028180008B9
:101A000000A24A04000000000000000000000000E6
:04000005080000ED02
:00000001FF
